:1000000012C02CC02BC02AC029C028C008C326C0DB
:1000100025C024C023C022C021C020C01FC01EC0D4
:100020001DC01CC01BC011241FBECFE5D4E0DEBF25
:10003000CDBF11E0A0E6B0E0ECEDF0E102C005902C
:100040000D92AE3DB107D9F712E0AEEDB1E001C0BF
:100050001D92AD30B107E1F7F0D13EC8D1CF20E01D
:1000600030E008C0E7EBFBE03197F1F700C000009B
:100070002F5F3F4F28173907ACF3089582BBAB9A27
:10008000A998AA9881E090E0EADFAB9881E090E03F
:10009000E6DF089582BB85B38A6085BBAA9881E0BC
:1000A00090E0DDDFAB9881E090E0D9DF089584B384
:1000B0008E6084BB8CE3E2DF8CE0E0DF86E0DEDF95
:1000C00081E0DCDF80E8DADF0895DF92EF92FF92D3
:1000D0000F931F93CF93DF937C01D62E982F092F78
:1000E0001F2DC0E0D0E00AC0DD2019F08D2D90E07A
:1000F000B6DFF80181918F01CDDF2196F7010190E4
:100100000020E9F73197EE19FF09CE17DF0760F3FA
:10011000DF91CF911F910F91FF90EF90DF900895A5
:100120006130710589F06230710524F46115710543
:1001300041F013C06230710551F06330710569F40C
:1001400009C080589F4F0BC080549F4F08C08C56E9
:100150009F4F05C08C529F4F02C080E090E08EDF21
:1001600008950F931F93DF93CF9300D00F92CDB7D5
:10017000DEB78C012B8349835A83D2DF4981A42FB8
:100180005A81B52FFD0101900020E9F73197EA1B54
:10019000FB0B84E190E0801B910B2B818E179F0756
:1001A00018F0CA01622F91DF0F900F900F90CF913E
:1001B000DF911F910F910895CF93DF93EC019A0186
:1001C000633071051CF4FC01319702C0FC012297D9
:1001D0002C5F3F4F47E150E0649FC001659F900D49
:1001E000749F900D112469E070E0B6D5260F371F7B
:1001F0002C0F3D1FCF0164E070E0AED5260F371FF6
:10020000CF016CE97FEFA8D5260F371FCF0160E93A
:1002100071E0A2D5260F371FC90167E070E09CD5B9
:10022000FC01EE0FFF1FEE53FF4F80819181DF91A4
:10023000CF9108958F929F92AF92BF92CF92DF920B
:10024000EF92FF920F931F93CF93DF936C017B018B
:10025000B42EA52E8901C901DDD5882EE4014E01F9
:10026000992EE401C601B4014AE050E006D78B2D77
:100270009A2DE80EF91EF70180E090E040E3B70107
:100280006F5F7F4F12C03AE0C316D10434F4D70138
:100290004C932881DB012C9306C09E01280F391F47
:1002A000D9012C91208301963196801791075CF338
:1002B000CE014AD6DF91CF911F910F91FF90EF9021
:1002C000DF90CF90BF90AF909F908F900895FF9256
:1002D0000F931F93CF93DF93EC018C010B5F1F4FA4
:1002E0008B8190E0B80140E050E022E030E0A2DFF6
:1002F0009AE3F92EFF828C8190E0B80143E050E050
:1003000022E030E097DFFA868E8590E0B80146E083
:1003100050E022E030E08EDFDF91CF911F910F910E
:10032000FF900895FF920F931F93CF93DF93EC01FB
:100330008C01015F1F4F888190E08053984FB80176
:1003400040E050E024E030E075DF2DE2F22EFB8A41
:10035000898190E0B80145E050E022E030E06ADFBA
:10036000FE8A8A8190E0B80148E050E022E030E067
:1003700061DF69814A81888190E070E050E01CDF94
:1003800098A78FA3DF91CF911F910F91FF900895B0
:10039000CF93DF93EC019BDFCE01C4DFDF91CF91E0
:1003A0000895FC0186858F5F86878C3320F0168642
:1003B00084818F5F848384818C3320F014828381D5
:1003C0008F5F83838381883120F0138282818F5FE6
:1003D00082838181DF01A80FB11D22815A969C91F1
:1003E0005A97921720F491E092838F5F81838181E5
:1003F0008D3028F081E0818380818F5F8083089534
:10040000379A87B1807387B9369A84E08A95F1F775
:1004100024B135B1C90108958FB58C7F8FBD8EB5DC
:100420008C608EBD8EB58C7E8EBD8BE197EB9BBDB7
:100430008ABD89B7806189BF0895DF92EF92FF92EC
:100440000F931F93DF93CF93CDB7DEB72F970FB6E0
:10045000F894DEBF0FBECDBFE091A400F091A500DF
:100460008FED8083DE011196E0E6F0E087E00190F9
:100470000D928150E1F7DE011896E7E6F0E088E0A2
:1004800001900D928150E1F787B39FEF97BB87B33F
:10049000887F87BB88B3876088BB81B391BBA0EEA0
:1004A000B1E0EFE6F0E089E201900D928150E1F7D2
:1004B000FEDD4091A4005091A50082E190E060E053
:1004C00070E020E030E04DDE8FEF9CEDADE6815036
:1004D0009040A040E1F700C000009EDF78948E01BC
:1004E0000F5F1F4F38E0E32EF12CEC0EFD1EDD24D4
:1004F000D394B0991EC08091DE018823D1F0809101
:10050000DF018F5F8093DF01873010F01092DF01F1
:100510001092DE018091DF01F801E80FF11D80816A
:100520008E8786E090E063E070E0A70120E030E095
:1005300018DEB09902C0D092DE01B19935C0809129
:10054000DF018230D1F0833028F4882351F08130EC
:1005500059F50DC08430E9F08430A8F0853021F5DC
:100560001EC08091EE018F5F8093EE011DC08091CF
:10057000E4018F5F8093E40117C08091E3018F5FF6
:100580008093E30111C08091E2018F5F8093E201CB
:100590000BC08091E1018F5F8093E10105C08091E4
:1005A000E0018F5F8093E001B29935C08091DF0157
:1005B0008230D1F0833028F4882351F0813059F50E
:1005C0000DC08430E9F08430A8F0853021F51EC0DC
:1005D0008091EE0181508093EE011DC08091E40175
:1005E00081508093E40117C08091E3018150809392
:1005F000E30111C08091E20181508093E2010BC0C0
:100600008091E10181508093E10105C08091E0017A
:1006100081508093E00184EF91E021DD6ACF1F9249
:100620000F920FB60F9211242F933F934F935F9326
:100630006F937F938F939F93AF93BF93CF93DF93EA
:10064000EF93FF93C0EED1E0CE01ABDECE01A0DE92
:10065000AE01415F5F4F80E090E060E070E020E03D
:1006600030E07FDDAE014B5F5F4F86E090E062E0FF
:1006700070E020E030E075DD409107025091080203
:100680008BE090E060E070E020E030E06ADDB8DE12
:100690009C01B901882777FD8095982F22D128E009
:1006A00030E04AEF5EE328D078D1DC01CB016091E5
:1006B0009F007091A0004AE050E0DFD440919F007D
:1006C0005091A00080E190E060E070E020E030E038
:1006D00048DDFF91EF91DF91CF91BF91AF919F9155
:1006E0008F917F916F915F914F913F912F910F90DB
:1006F0000FBE0F901F901895A0E2B0E0E1E8F3E084
:1007000052C369837A838B839C832D833E834F837B
:100710005887CE010196BE01675F7F4FB4D2CE01EC
:100720000596BE016F5E7F4FAED29985923078F00C
:1007300089898230C0F0943019F4823041F4CBC002
:10074000843019F4923079F4C6C0923051F481E0CB
:100750002A859A89291709F480E08A87CE010996AB
:10076000BCC0823051F481E02A859A89291709F4A6
:1007700080E08A8BCE014196B0C06D847E848F84E8
:100780009888ED88FE880F89188DE0E2F0E080E01F
:1007900090E0DC01AA24BB24650120E030E0A9013F
:1007A000B3016170707061157105D1F02E0D3F1DA0
:1007B000401F511F15012601280E391E4A1E5B1EBF
:1007C00081E090E0A0E0B0E02E153F054007510722
:1007D00018F080E090E0DC01820D931DA41DB51D92
:1007E000AA0CBB1CCC1CDD1C17FF09C061E0262E27
:1007F000312C412C512CA228B328C428D52831975C
:1008000049F0EE0CFF1C001F111F969487947794FB
:100810006794C6CF6B897C89EB85FC856E0F7F1F43
:100820006E5F7F4F7C8F6B8F61E0EA857A89E71777
:1008300009F460E06A8F6B8D7C8D10C0FC01E17063
:10084000F070309729F05695479537952795506861
:10085000B695A795979587956F5F7F4FB7FDEECFBC
:100860000CC0880F991FAA1FBB1F57FD8160220F64
:10087000331F441F551F615070408030E0E09E07D9
:10088000E0E0AE07E0E4BE0760F36B8F7C8F6FE7BC
:10089000E62EF12C012D112DE822F9220A231B232B
:1008A00060E4E616F1040105110561F487FD0AC054
:1008B000211531054105510529F0805C9F4FAF4F4F
:1008C000BF4F80788D8F9E8FAF8FB8A383E0898FC5
:1008D000CE01499602C080ED90E008D1A096E2E1F9
:1008E0007EC2A8E0B0E0E6E7F4E069C27B018C01DB
:1008F00083E08983D801C7018827B7FD83959927AD
:10090000AA27BB27282F8A83E114F10401051105CA
:1009100019F482E0898336C08EE190E09C838B835A
:10092000222389F080E0E81680E0F80680E00807DE
:1009300080E8180759F110950095F094E094E11CB7
:10094000F11C011D111DED82FE820F831887C80165
:10095000B70172D09C01215030401216130694F456
:10096000022E04C0EE0CFF1C001F111F0A94D2F7C8
:10097000ED82FE820F8318878EE190E0821B930B3D
:100980009C838B83CE010196B1D004C060E070E0FF
:1009900080E09FEC2896E6E02EC2ACE0B0E0E2ED0D
:1009A000F4E011C269837A838B839C83CE01019624
:1009B000BE016B5F7F4F67D18D81823081F18230C4
:1009C00070F1843021F48E81882369F10AC02F816F
:1009D000388537FD24C06E812F3131053CF0662308
:1009E00011F120E030E040E050E821C08EE190E0DD
:1009F000821B930B29853A854B855C8504C05695EF
:100A00004795379527958A95D2F7662381F05095BB
:100A10004095309521953F4F4F4F5F4F08C020E0E4
:100A200030E0A90104C02FEF3FEF4FEF5FE7B901BE
:100A3000CA012C96E2E0E3C1AF92BF92CF92DF925F
:100A4000EF92FF920F931F937B018C0180E0E816D9
:100A500080E0F80681E0080780E0180758F4EFEF1F
:100A6000EE16F1040105110509F090F480E090E024
:100A7000DC0117C0F0E0EF16F0E0FF06F0E00F0732
:100A8000F1E01F0750F480E190E0A0E0B0E009C081
:100A900088E090E0A0E0B0E004C088E190E0A0E051
:100AA000B0E020E230E040E050E0281B390B4A0B78
:100AB0005B0B5701680104C0D694C794B794A79400
:100AC0008A95D2F7D601C50188529F4FFC018081DB
:100AD000281B310941095109C9011F910F91FF904C
:100AE000EF90DF90CF90BF90AF900895EF92FF927C
:100AF0000F931F93CF93DF93FC01248135814681AF
:100B0000578161818081823020F44061EFEFF0E015
:100B1000A3C0843009F49BC0823009F492C021152F
:100B200031054105510509F48FC00280F381E02DA4
:100B30008FEFE238F8070CF05AC0C2E8DFEFCE1BA7
:100B4000DF0BCA31D1056CF579018A010C2E04C086
:100B500016950795F794E7940A94D2F781E090E010
:100B6000A0E0B0E00C2E04C0880F991FAA1FBB1F85
:100B70000A94D2F70197A109B10982239323A423F0
:100B8000B52321E030E040E050E00097A105B10539
:100B900019F420E030E0A9012E293F29402B512BE8
:100BA00003C020E030E0A901DA01C9018F7790701D
:100BB000A070B07080349105A105B10539F427FF0C
:100BC00009C0205C3F4F4F4F5F4F04C0215C3F4F37
:100BD0004F4F5F4FE1E0F0E0203080E0380780E0E9
:100BE000480780E4580728F5E0E0F0E022C0E0384C
:100BF000F1056CF5E158FF4FDA01C9018F7790706C
:100C0000A070B07080349105A105B10539F427FFBB
:100C100009C0205C3F4F4F4F5F4F04C0215C3F4FE6
:100C20004F4F5F4F57FF05C056954795379527950E
:100C3000319687E056954795379527958A95D1F750
:100C40000BC0E0E0F0E005C0E0E0F0E005C0EFEF51
:100C5000F0E020E030E0A9018E2F87958827879566
:100C6000942F9F77679566276795E695E22EA92FC3
:100C7000A82BFE2FF62B622F732F8A2F9F2FCDB715
:100C8000DEB7E6E0B8C0DC01FB012C9111963C9187
:100C9000119712968C911297482F4F7750E0982F0A
:100CA000991F9927991F13966C911397862F880F78
:100CB000892B90E0661F6627661F6183009739F5D0
:100CC000211531054105510511F482E029C082E862
:100CD0009FEF9383828367E0220F331F441F551FCA
:100CE0006A95D1F783E0808309C0220F331F441F28
:100CF000551F82819381019793838283203080E006
:100D0000380780E0480780E4580778F320C08F3F19
:100D1000910579F4211531054105510519F484E057
:100D20008083089544FF03C081E0808310C0108257
:100D30000EC08F5790409383828383E0808387E047
:100D4000220F331F441F551F8A95D1F75064248307
:100D5000358346835783089597FB092E07260AD0CB
:100D600077FD04D00CD006D000201AF47095619560
:100D70007F4F0895F6F7909581959F4F0895AA1B90
:100D8000BB1B51E107C0AA1FBB1FA617B70710F076
:100D9000A61BB70B881F991F5A95A9F780959095A8
:100DA000BC01CD0108952F923F924F925F926F92B6
:100DB0007F928F929F92AF92BF92CF92DF92EF92EB
:100DC000FF920F931F93CF93DF93CDB7DEB7CA1B6C
:100DD000DB0B0FB6F894DEBF0FBECDBF09942A8897
:100DE000398848885F846E847D848C849B84AA843F
:100DF000B984C884DF80EE80FD800C811B81AA81CC
:100E0000B981CE0FD11D0FB6F894DEBF0FBECDBF96
:100E1000ED010895CF93DF938230910510F482E0C5
:100E200090E0E0910B02F0910C0240E050E020E0F5
:100E300030E026C06081718168177907E0F068179B
:100E4000790781F4828193812115310531F0D9012F
:100E500013969C938E9312972BC090930C028093C1
:100E60000B0226C04115510519F06417750718F4D7
:100E7000AB01E901DF019F0172816381E72FF62F4A
:100E80003097C1F64115510501F1481B590B44300B
:100E9000510580F412968D919C911397209719F02B
:100EA0009B838A8304C090930C0280930B02FD0104
:100EB000329646C0FD01E40FF51F81939193425095
:100EC000504011965C934E933BC0209109023091A3
:100ED0000A022115310541F42091DA013091DB013C
:100EE00030930A02209309022091DC013091DD0148
:100EF0002115310541F42DB73EB74091D8015091ED
:100F0000D901241B350BE0910902F0910A02E21786
:100F1000F307A0F42E1B3F0B2817390778F0AC011C
:100F20004E5F5F4F2417350748F04E0F5F1F5093F9
:100F30000A02409309028193919302C0E0E0F0E03D
:100F4000CF01DF91CF910895CF93DF93009709F4FC
:100F500091C0FC0132971382128260910B02709152
:100F60000C026115710581F420813181280F391F30
:100F70008091090290910A028217930799F5F093E4
:100F80000A02E093090276C0DB0180E090E002C033
:100F9000CD01D901AE17BF0748F412962D913C91AF
:100FA000139721153105A1F7CD0121C0B383A28389
:100FB000EF01499159919E01240F351FA217B307E4
:100FC00079F42D913C911197240F351F2E5F3F4FDF
:100FD0003183208312962D913C9113973383228382
:100FE000009729F4F0930C02E0930B0243C0DC015C
:100FF0001396FC93EE9312974D915D91A40FB51F3C
:10100000EA17FB0769F420813181240F351F2E5F19
:101010003F4FEC0139832883228133813B832A832C
:10102000E0E0F0E002C0FB01BC01DB0112968D9113
:101030009C9113970097B9F79B012E5F3F4F8D91BD
:101040009C911197820F931F4091090250910A02BF
:101050004817590779F4309729F410920C0210922E
:101060000B0202C0138212822250304030930A02D7
:1010700020930902DF91CF910895FB019F01E8942D
:101080004230BCF04532ACF44A3029F497FB1EF4F0
:10109000909581959F4F642F772771DE805D8A330D
:1010A0000CF0895D8193CB010097A9F716F45DE2FE
:1010B00051931082C90100C0DC01FC01672F7191BE
:1010C0007723E1F7329704C07C916D93708362912E
:0C10D000AE17BF07C8F30895F894FFCFD7
:1010DC00736D68444D59004D4F44453A2020000E25
:1010EC000312173B32333A35393A35350037313440
:1010FC002D31322D3331000000001F1C1F1E1F1E0E
:10110C001F1F1E1F1E1F0000300098003339009C4B
:10111C0000644300A10053554E004D4F4E005455F2
:10112C004500574544005448550046524900534128
:10113C005400A600AA00AE00B200B600BA00BE0071
:10114C000000000000000000000102020303030382
:10115C00040404040404040405050505050505053B
:10116C00050505050505050506060606060606061B
:10117C000606060606060606060606060606060603
:10118C0006060606060606060707070707070707EB
:10119C0007070707070707070707070707070707D3
:1011AC0007070707070707070707070707070707C3
:1011BC0007070707070707070707070707070707B3
:1011CC00070707070707070708080808080808089B
:1011DC000808080808080808080808080808080883
:1011EC000808080808080808080808080808080873
:1011FC000808080808080808080808080808080863
:10120C000808080808080808080808080808080852
:10121C000808080808080808080808080808080842
:10122C000808080808080808080808080808080832
:10123C000808080808080808080808080808080822
:0E124C00080808080808080820000D02000025
:00000001FF
