:1000000012C02CC02BC02AC029C028C007C326C0DC
:1000100025C024C023C022C021C020C01FC01EC0D4
:100020001DC01CC01BC011241FBECFE5D4E0DEBF25
:10003000CDBF10E0A0E6B0E0ECE0FAE002C0059031
:100040000D92A63DB107D9F711E0A6EDB0E001C0D1
:100050001D92A530B107E1F7EED1D6C4D1CF20E093
:1000600030E008C0E9EFF0E03197F1F700C00000A0
:100070002F5F3F4F28173907ACF3089582BBAB9A27
:10008000A998AA9881E090E0EADFAB9881E090E03F
:10009000E6DF089582BB85B38A6085BBAA9881E0BC
:1000A00090E0DDDFAB9881E090E0D9DF089584B384
:1000B0008E6084BB8CE3E2DF8CE0E0DF86E0DEDF95
:1000C00081E0DCDF80E8DADF0895DF92EF92FF92D3
:1000D0000F931F93CF93DF937C01D62E982F092F78
:1000E0001F2DC0E0D0E00AC0DD2019F08D2D90E07A
:1000F000B6DFF80181918F01CDDF2196F7010190E4
:100100000020E9F73197EE19FF09CE17DF0760F3FA
:10011000DF91CF911F910F91FF90EF90DF900895A5
:100120006130710589F06230710524F46115710543
:1001300041F013C06230710551F06330710569F40C
:1001400009C080589F4F0BC080549F4F08C08C56E9
:100150009F4F05C08C529F4F02C080E090E08EDF21
:1001600008950F931F93DF93CF9300D00F92CDB7D5
:10017000DEB78C012B8349835A83D2DF4981A42FB8
:100180005A81B52FFD0101900020E9F73197EA1B54
:10019000FB0B84E190E0801B910B2B818E179F0756
:1001A00018F0CA01622F91DF0F900F900F90CF913E
:1001B000DF911F910F910895CF93DF93EC019A0186
:1001C000633071051CF4FC01319702C0FC012297D9
:1001D0002C5F3F4F47E150E0649FC001659F900D49
:1001E000749F900D112469E070E085D2260F371FAF
:1001F0002C0F3D1FCF0164E070E07DD2260F371F2A
:10020000CF016CE97FEF77D2260F371FCF0160E96E
:1002100071E071D2260F371FC90167E070E06BD221
:10022000FC01EE0FFF1FEE53FF4F80819181DF91A4
:10023000CF9108958F929F92AF92BF92CF92DF920B
:10024000EF92FF920F931F93CF93DF936C017B018B
:10025000B42EA52E8901C90175D2882EE4014E0164
:10026000992EE401C601B4014AE050E09ED38B2DE3
:100270009A2DE80EF91EF70180E090E040E3B70107
:100280006F5F7F4F12C03AE0C316D10434F4D70138
:100290004C932881DB012C9306C09E01280F391F47
:1002A000D9012C91208301963196801791075CF338
:1002B000CE01E2D2DF91CF911F910F91FF90EF908D
:1002C000DF90CF90BF90AF909F908F900895FF9256
:1002D0000F931F93CF93DF93EC018C010B5F1F4FA4
:1002E0008B8190E0B80140E050E022E030E0A2DFF6
:1002F0009AE3F92EFF828C8190E0B80143E050E050
:1003000022E030E097DFFA868E8590E0B80146E083
:1003100050E022E030E08EDFDF91CF911F910F910E
:10032000FF900895FF920F931F93CF93DF93EC01FB
:100330008C01015F1F4F888190E08053984FB80176
:1003400040E050E024E030E075DF2DE2F22EFB8A41
:10035000898190E0B80145E050E022E030E06ADFBA
:10036000FE8A8A8190E0B80148E050E022E030E067
:1003700061DF69814A81888190E070E050E01CDF94
:1003800098A78FA3DF91CF911F910F91FF900895B0
:10039000CF93DF93EC019BDFCE01C4DFDF91CF91E0
:1003A0000895FC0186858F5F86878C3320F0168642
:1003B00084818F5F848384818C3320F014828381D5
:1003C0008F5F83838381883120F0138282818F5FE6
:1003D00082838181DF01A80FB11D22815A969C91F1
:1003E0005A97921720F491E092838F5F81838181E5
:1003F0008D3028F081E0818380818F5F8083089534
:10040000379A87B1807387B9369A000024B135B125
:10041000C90108958FB58C7F8FBD8EB58B608EBD61
:100420008EB58B7E8EBD89E09DE39BBD8ABD89B76D
:10043000806189BF0895DF92EF92FF920F931F931F
:10044000DF93CF93CDB7DEB72F970FB6F894DEBF0B
:100450000FBECDBFE091A400F091A5008FED808389
:10046000DE011196E0E6F0E087E001900D92815008
:10047000E1F7DE011896E7E6F0E088E001900D92E2
:100480008150E1F787B39FEF97BB87B3887F87BB26
:1004900088B3876088BB81B391BBA8EDB0E0EFE67D
:1004A000F0E089E201900D928150E1F700DE409189
:1004B000A4005091A50082E190E060E070E020E0AF
:1004C00030E04FDE8FEB97E2A9E081509040A040F2
:1004D000E1F700C000009EDF78948E010F5F1F4F90
:1004E00038E0E32EF12CEC0EFD1EDD24D394B09900
:1004F0001EC08091D6008823D1F08091D7008F5FF5
:100500008093D700873010F01092D7001092D60059
:100510008091D700F801E80FF11D80818E8786E079
:1005200090E063E070E0A70120E030E01ADEB099CF
:1005300002C0D092D600B19935C08091D7008230E8
:10054000D1F0833028F4882351F0813059F50DC063
:100550008430E9F08430A8F0853021F51EC0809108
:10056000E6008F5F8093E6001DC08091DC008F5F06
:100570008093DC0017C08091DB008F5F8093DB00ED
:1005800011C08091DA008F5F8093DA000BC08091F8
:10059000D9008F5F8093D90005C08091D8008F5F0C
:1005A0008093D800B29935C08091D7008230D1F0C5
:1005B000833028F4882351F0813059F50DC0843000
:1005C000E9F08430A8F0853021F51EC08091E60066
:1005D00081508093E6001DC08091DC0081508093A3
:1005E000DC0017C08091DB0081508093DB0011C0DC
:1005F0008091DA0081508093DA000BC08091D9009D
:1006000081508093D90005C08091D800815080939B
:10061000D800369A84EF91E022DD69CF1F920F92C5
:100620000FB60F9211242F933F934F935F936F93C5
:100630007F938F939F93AF93BF93CF93DF93EF936A
:10064000FF93C8EDD0E0CE01ACDECE01A1DEAE015D
:10065000415F5F4F80E090E060E070E020E030E0DC
:1006600080DDAE014B5F5F4F86E090E062E070E0BE
:1006700020E030E076DD4091FF00509100018BE0FA
:1006800090E060E070E020E030E06BDDB9DE24EF68
:1006900031E0AC01429FC001439F900D529F900DED
:1006A000112460E074E027D09B0160919F0070915D
:1006B000A000C9014AE050E078D140919F005091DC
:1006C000A00080E190E060E070E020E030E049DDF3
:1006D000FF91EF91DF91CF91BF91AF919F918F915A
:1006E0007F916F915F914F913F912F910F900FBE2E
:1006F0000F901F90189597FB092E07260AD077FDBB
:1007000004D00CD006D000201AF4709561957F4F6C
:100710000895F6F7909581959F4F0895AA1BBB1BEE
:1007200051E107C0AA1FBB1FA617B70710F0A61BF1
:10073000B70B881F991F5A95A9F780959095BC0112
:10074000CD010895CF93DF938230910510F482E0BC
:1007500090E0E0910301F091040140E050E020E0DE
:1007600030E026C06081718168177907E0F0681772
:10077000790781F4828193812115310531F0D90106
:1007800013969C938E9312972BC0909304018093A1
:10079000030126C04115510519F06417750718F4B7
:1007A000AB01E901DF019F0172816381E72FF62F21
:1007B0003097C1F64115510501F1481B590B4430E2
:1007C000510580F412968D919C911397209719F002
:1007D0009B838A8304C09093040180930301FD01ED
:1007E000329646C0FD01E40FF51F8193919342506C
:1007F000504011965C934E933BC020910101309183
:1008000002012115310541F42091D2003091D3002D
:1008100030930201209301012091D4003091D50042
:100820002115310541F42DB73EB74091D0005091CC
:10083000D100241B350BE0910101F0910201E21778
:10084000F307A0F42E1B3F0B2817390778F0AC01F3
:100850004E5F5F4F2417350748F04E0F5F1F5093D0
:100860000201409301018193919302C0E0E0F0E026
:10087000CF01DF91CF910895CF93DF93009709F4D3
:1008800091C0FC0132971382128260910301709132
:1008900004016115710581F420813181280F391F10
:1008A00080910101909102018217930799F5F093CD
:1008B0000201E093010176C0DB0180E090E002C01C
:1008C000CD01D901AE17BF0748F412962D913C9186
:1008D000139721153105A1F7CD0121C0B383A28360
:1008E000EF01499159919E01240F351FA217B307BB
:1008F00079F42D913C911197240F351F2E5F3F4FB6
:100900003183208312962D913C9113973383228358
:10091000009729F4F0930401E093030143C0DC0144
:100920001396FC93EE9312974D915D91A40FB51F12
:10093000EA17FB0769F420813181240F351F2E5FF0
:100940003F4FEC0139832883228133813B832A8303
:10095000E0E0F0E002C0FB01BC01DB0112968D91EA
:100960009C9113970097B9F79B012E5F3F4F8D9194
:100970009C911197820F931F4091010150910201A8
:100980004817590779F4309729F41092040110920E
:10099000030102C0138212822250304030930201C0
:1009A00020930101DF91CF910895FB019F01E8940D
:1009B0004230BCF04532ACF44A3029F497FB1EF4C7
:1009C000909581959F4F642F7727A8DE805D8A33AD
:1009D0000CF0895D8193CB010097A9F716F45DE2D5
:1009E00051931082C90100C0DC01FC01672F719195
:1009F0007723E1F7329704C07C916D937083629105
:0C0A0000AE17BF07C8F30895F894FFCFAD
:100A0C00736D68444D59004D4F44453A2020000EFB
:100A1C000312173B32333A35393A35350037313416
:100A2C002D31322D3331000000001F1C1F1E1F1EE4
:100A3C001F1F1E1F1E1F0000300098003339009C22
:100A4C0000644300A10053554E004D4F4E005455C9
:100A5C0045005745440054485500465249005341FF
:100A6C005400A600AA00AE00B200B600BA00BE0048
:060A7C002000050100004E
:00000001FF
