:1000000012C02CC02BC02AC029C028C080C226C064
:1000100025C024C023C022C021C020C01FC01EC0D4
:100020001DC01CC01BC011241FBECFE5D4E0DEBF25
:10003000CDBF11E0A0E6B0E0EEEFF8E002C0059021
:100040000D92A031B107D9F711E0A0E1B1E001C0F4
:100050001D92AE33B107E1F7F2D14FC4D1CF20E00A
:1000600030E008C0E9EFF0E03197F1F700C00000A0
:100070002F5F3F4F28173907ACF3089582BBAB9A27
:10008000A998AA9881E090E0EADFAB9881E090E03F
:10009000E6DF089582BB85B38A6085BBAA9881E0BC
:1000A00090E0DDDFAB9881E090E0D9DF089584B384
:1000B0008E6084BB8CE3E2DF8CE0E0DF86E0DEDF95
:1000C00081E0DCDF80E8DADF0895DF92EF92FF92D3
:1000D0000F931F93CF93DF937C01D62E982F092F78
:1000E0001F2DC0E0D0E00AC0DD2019F08D2D90E07A
:1000F000B6DFF80181918F01CDDF2196F7010190E4
:100100000020E9F73197EE19FF09CE17DF0760F3FA
:10011000DF91CF911F910F91FF90EF90DF900895A5
:100120006130710589F06230710524F46115710543
:1001300041F013C06230710551F06330710569F40C
:1001400009C080589F4F0BC080549F4F08C08C56E9
:100150009F4F05C08C529F4F02C080E090E08EDF21
:1001600008950F931F93DF93CF9300D00F92CDB7D5
:10017000DEB78C012B8349835A83D2DF4981A42FB8
:100180005A81B52FFD0101900020E9F73197EA1B54
:10019000FB0B84E190E0801B910B2B818E179F0756
:1001A00018F0CA01622F91DF0F900F900F90CF913E
:1001B000DF911F910F910895CF93DF93EC019A0186
:1001C000633071051CF4FC01319702C0FC012297D9
:1001D0002C5F3F4F47E150E0649FC001659F900D49
:1001E000749F900D112469E070E0FED1260F371F37
:1001F0002C0F3D1FCF0164E070E0F6D1260F371FB2
:10020000CF016CE97FEFF0D1260F371FCF0160E9F6
:1002100071E0EAD1260F371FC90167E070E0E4D131
:10022000FC01EE0FFF1FE550FF4F80819181DF91B0
:10023000CF9108958F929F92AF92BF92CF92DF920B
:10024000EF92FF920F931F93CF93DF936C017B018B
:10025000B42EA52E8901C901EED1882EE4014E01EC
:10026000992EE401C601B4014AE050E017D38B2D6A
:100270009A2DE80EF91EF70180E090E040E3B70107
:100280006F5F7F4F12C03AE0C316D10434F4D70138
:100290004C932881DB012C9306C09E01280F391F47
:1002A000D9012C91208301963196801791075CF338
:1002B000CE015BD2DF91CF911F910F91FF90EF9014
:1002C000DF90CF90BF90AF909F908F900895FF9256
:1002D0000F931F93CF93DF93EC018C010B5F1F4FA4
:1002E0008B8190E0B80140E050E022E030E0A2DFF6
:1002F0009AE3F92EFF828C8190E0B80143E050E050
:1003000022E030E097DFFA868E8590E0B80146E083
:1003100050E022E030E08EDFDF91CF911F910F910E
:10032000FF900895FF920F931F93CF93DF93EC01FB
:100330008C01015F1F4F888190E08053984FB80176
:1003400040E050E024E030E075DF2DE2F22EFB8A41
:10035000898190E0B80145E050E022E030E06ADFBA
:10036000FE8A8A8190E0B80148E050E022E030E067
:1003700061DF69814A81888190E070E050E01CDF94
:1003800098A78FA3DF91CF911F910F91FF900895B0
:10039000CF93DF93EC019BDFCE01C4DFDF91CF91E0
:1003A0000895FC0186858F5F86878C3321F416863D
:1003B00084818F5F848384818C3321F414828381D0
:1003C0008F5F83838381883121F4138282818F5FE1
:1003D00082838181DF01A80FB11D22815A969C91F1
:1003E0005A97921720F491E092838F5F81838181E5
:1003F0008D3028F081E0818380818F5F8083089534
:10040000379A87B1807387B9369A000084B195B165
:10041000392F20E0280F311DC90108958FB58C7F39
:100420008FBD8EB58B608EBD8EB58B7E8EBD89E007
:100430009DE39BBD8ABD89B7806189BF08951F93E5
:10044000E091DD00F091DE008FED808387B39FEFB8
:1004500097BB87B3887F87BB88B3876088BB81B32E
:1004600091BBA1E1B1E0E7E6F0E089E201900D92F5
:100470008150E1F71CDE86E090E062E070E046E14A
:1004800051E022E330E06DDE4091C1005091C200A6
:1004900080E090E061E070E022E330E062DE4091D5
:1004A000A7005091A80080E090E06DE070E022E3AA
:1004B00030E057DE4091DD005091DE0082E190E0B7
:1004C00060E070E020E030E04CDE8FEB97E2A9E0E6
:1004D00081509040A040E1F700C000009FDF789479
:1004E00011E0B0990FC080911001882359F080E08D
:1004F00090E063E070E040E650E020E030E031DE84
:1005000010921001B099EDCF10931001EACF1F9215
:100510000F920FB60F9211242F933F934F935F9337
:100520006F937F938F939F93AF93BF93CF93DF93FB
:10053000EF93FF93C1E1D1E0CE0133DFCE0128DF9D
:10054000AE01415F5F4F80E090E060E070E020E04E
:1005500030E007DEAE014B5F5F4F86E090E062E087
:1005600070E020E030E0FDDD40913801509139012C
:100570008BE090E060E070E020E030E0F2DD40DF12
:1005800024EF31E0AC01429FC001439F900D529F88
:10059000900D112460E074E027D09B016091D80099
:1005A0007091D900C9014AE050E078D14091D8005B
:1005B0005091D90080E190E060E070E020E030E010
:1005C000D0DDFF91EF91DF91CF91BF91AF919F91DE
:1005D0008F917F916F915F914F913F912F910F90EC
:1005E0000FBE0F901F90189597FB092E07260AD073
:1005F00077FD04D00CD006D000201AF470956195D8
:100600007F4F0895F6F7909581959F4F0895AA1B07
:10061000BB1B51E107C0AA1FBB1FA617B70710F0ED
:10062000A61BB70B881F991F5A95A9F7809590951F
:10063000BC01CD010895CF93DF938230910510F472
:1006400082E090E0E0913C01F0913D0140E050E01B
:1006500020E030E026C06081718168177907E0F002
:100660006817790781F4828193812115310531F072
:10067000D90113969C938E9312972BC090933D01B2
:1006800080933C0126C04115510519F06417750788
:1006900018F4AB01E901DF019F0172816381E72F4B
:1006A000F62F3097C1F64115510501F1481B590B42
:1006B0004430510580F412968D919C9113972097A8
:1006C00019F09B838A8304C090933D0180933C0181
:1006D000FD01329646C0FD01E40FF51F8193919311
:1006E0004250504011965C934E933BC020913A018A
:1006F00030913B012115310541F420910B013091DE
:100700000C0130933B0120933A0120910D0130916F
:100710000E012115310541F42DB73EB74091090175
:1007200050910A01241B350BE0913A01F0913B01F5
:10073000E217F307A0F42E1B3F0B2817390778F0B8
:10074000AC014E5F5F4F2417350748F04E0F5F1F17
:1007500050933B0140933A018193919302C0E0E0B2
:10076000F0E0CF01DF91CF910895CF93DF93009711
:1007700009F491C0FC0132971382128260913C010E
:1007800070913D016115710581F420813181280F3F
:10079000391F80913A0190913B018217930799F597
:1007A000F0933B01E0933A0176C0DB0180E090E0FA
:1007B00002C0CD01D901AE17BF0748F412962D91A2
:1007C0003C91139721153105A1F7CD0121C0B383C9
:1007D000A283EF01499159919E01240F351FA21761
:1007E000B30779F42D913C911197240F351F2E5F9B
:1007F0003F4F3183208312962D913C911397338381
:100800002283009729F4F0933D01E0933C0143C01B
:10081000DC011396FC93EE9312974D915D91A40F1A
:10082000B51FEA17FB0769F420813181240F351FBA
:100830002E5F3F4FEC0139832883228133813B8334
:100840002A83E0E0F0E002C0FB01BC01DB0112966C
:100850008D919C9113970097B9F79B012E5F3F4FA5
:100860008D919C911197820F931F40913A01509165
:100870003B014817590779F4309729F410923D014C
:1008800010923C0102C013821282225030403093F9
:100890003B0120933A01DF91CF910895FB019F0125
:1008A000E8944230BCF04532ACF44A3029F497FB6E
:1008B0001EF4909581959F4F642F7727A8DE805D69
:1008C0008A330CF0895D8193CB010097A9F716F468
:1008D0005DE251931082C90100C0DC01FC01672F69
:1008E00071917723E1F7329704C07C916D93708307
:0E08F0006291AE17BF07C8F30895F894FFCFCA
:1008FE00425554544F4E000E0312173B32333A35C5
:10090E00393A3535003731342D31322D333100003F
:10091E0000001F1C1F1E1F1E1F1F1E1F1E1F00005C
:10092E003000900050726174696268612100940019
:10093E0054696268612100A0004175726F72612175
:10094E0000A900476F6F64204D6F726E696E67204D
:10095E0000B300596F7527726520617765736F6DEF
:10096E00652100C300333900D500644300DA00531B
:10097E00554E004D4F4E00545545005745440054BA
:10098E004855004652490053415400DF00E300E74A
:10099E0000EB00EF00F300F70020003E0100000026
:00000001FF
