:1000000012C024C023C022C021C020C01FC01EC0F7
:100010001DC01CC01BC01AC019C018C017C016C014
:1000200015C014C013C011241FBECFE5D4E0DEBF3D
:10003000CDBF10E0A0E6B0E0E2EDF1E002C0059037
:100040000D92A237B107D9F79CD0C1C0D9CF82BBDE
:10005000AC9AAA98AB9887EB9BE00197F1F700C0A8
:100060000000AC9887EB9BE00197F1F700C000001F
:10007000089582BB85B3846185BBAB9887EB9BE019
:100080000197F1F700C00000AC9887EB9BE0019767
:10009000F1F700C0000008958CE3D9DF8CE0D7DFD2
:1000A00086E0D5DF81E0D3DF80E8D1DF0895EF92ED
:1000B000FF920F931F93CF93DF93EC0109900020E1
:1000C000E9F72197C81BD90BE82EF92E00E010E0C4
:1000D00006C0F70181917F01CCDF0F5F1F4F0C1726
:1000E0001D07BCF3DF91CF911F910F91FF90EF900F
:1000F00008956130710589F06230710524F461154D
:10010000710541F013C06230710551F06330710523
:1001100069F409C080589F4F0BC080549F4F08C09E
:100120008C569F4F05C08C529F4F02C080E090E0DC
:100130008EDF08950F931F93DF93CF9300D0CDB739
:10014000DEB78C0149835A83D4DF4981A42F5A81B9
:10015000B52FFD0101900020E9F73197EA1BFB0B59
:1001600084E190E0801B910BE817F90714F4CA01B1
:100170009EDF0F900F90CF91DF911F910F91089507
:10018000089587B39FEF97BB84B38C6184BB81B321
:1001900091BB82DF80E690E08ADF8AE090E062E057
:1001A00070E0A7DF8AE090E062E070E04CE650E0AB
:1001B000C1DF91E088B3892788BB2FEF3DE349E495
:1001C000215030404040E1F700C00000F3CFF894E8
:0201D000FFCF5F
:1001D20048656C6C6F20576F726421004142424146
:0201E20000001B
:00000001FF
