:1000000012C024C023C022C021C020C01FC01EC0F7
:100010001DC01CC01BC01AC019C018C017C016C014
:1000200015C014C013C011241FBECFE5D4E0DEBF3D
:10003000CDBF10E0A0E6B0E0E6EFF0E002C0059032
:100040000D92AE36B107D9F733D053C0D9CF82BBAA
:10005000AC9AAA98AB9887EB9BE00197F1F700C0A8
:100060000000AC9887EB9BE00197F1F700C000001F
:10007000089582BB85B3846185BBAB9887EB9BE019
:100080000197F1F700C00000AC9887EB9BE0019767
:10009000F1F700C0000008958CE3D9DF8FE0D7DFCF
:1000A00086E0D5DF81E0D3DF80E8D1DF08950895D1
:1000B000CF93DF9387B39FEF97BB84B38C6184BBEF
:1000C00081B391BBE9DFC0E6D0E08991D2DF20E0C7
:1000D000CE36D207D1F791E088B3892788BB2FEFBE
:1000E0003DE349E4215030404040E1F700C00000CA
:0600F000F3CFF894FFCFEE
:0E00F60048656C6C6F20576F726C64210000BF
:00000001FF
