:1000000012C02CC02BC02AC029C028C027C026C0BF
:1000100025C024C023C022C021C020C01FC01EC0D4
:100020001DC01CC01BC011241FBECFE5D4E0DEBF25
:10003000CDBF10E0A0E6B0E0E8EDF9E002C0059029
:100040000D92A63EB107D9F710E0A6EEB0E001C0D0
:100050001D92AA3EB107E1F77DD2BCC4D1CF20E00A
:1000600030E008C0E9EFF0E03197F1F700C00000A0
:100070002F5F3F4F28173907ACF3089582BBAB9A27
:10008000A998AA9881E090E0EADFAB9881E090E03F
:10009000E6DF089582BB85B38A6085BBAA9881E0BC
:1000A00090E0DDDFAB9881E090E0D9DF089584B384
:1000B0008E6084BB8CE3E2DF8CE0E0DF86E0DEDF95
:1000C00081E0DCDF80E8DADF0895DF92EF92FF92D3
:1000D0000F931F93CF93DF937C01D62E982F092F78
:1000E0001F2DC0E0D0E00AC0DD2019F08D2D90E07A
:1000F000B6DFF80181918F01CDDF2196F7010190E4
:100100000020E9F73197EE19FF09CE17DF0760F3FA
:10011000DF91CF911F910F91FF90EF90DF900895A5
:100120006130710589F06230710524F46115710543
:1001300041F013C06230710551F06330710569F40C
:1001400009C080589F4F0BC080549F4F08C08C56E9
:100150009F4F05C08C529F4F02C080E090E08EDF21
:1001600008950F931F93DF93CF9300D00F92CDB7D5
:10017000DEB78C012B8349835A83D2DF4981A42FB8
:100180005A81B52FFD0101900020E9F73197EA1B54
:10019000FB0B84E190E0801B910B2B81E817F907A2
:1001A00018F4CA01622F91DF0F900F900F90CF913A
:1001B000DF911F910F9108950F931F93CF93DF93BA
:1001C0008B019A01CEE0D0E0C61BD70BFC01E054B6
:1001D000FD4ECE0164EF7FEF37D2E60FF71F2D52B1
:1001E0003D474DE651E0E49FC001E59F900DF49F2F
:1001F000900D1124280F391FCF0164E070E024D244
:10020000260F371FCF016CE97FEF1ED2260F371F55
:10021000CF0160E971E018D2260F371FCE016CE0E4
:1002200070E012D2AB01440F551F460F571F440F09
:10023000551F440F551F400F511F69E970E0469F3D
:10024000C001479F900D569F900D1124895C9140ED
:1002500065E070E0F9D1260F371FB901882777FDD7
:100260008095982F6D5F7F4F8F4F9F4F27E030E035
:1002700040E050E0FCD1FB01EE0FFF1FEF52FF4FBB
:1002800080819181DF91CF911F910F910895EF921D
:10029000FF920F931F93DF93CF93CDB7DEB72E97C7
:1002A0000FB6F894DEBF0FBECDBF7B019A01DE0111
:1002B0001196E3ECF0E04EE001900D924150E1F731
:1002C0000EE010E00E191F09FC01E054FD4EC801BC
:1002D00064EF7FEFB9D1E60FF71F2D523D474DE692
:1002E00051E0E49FC001E59F900DF49F900D112413
:1002F000280F391FCF0164E070E0A6D1260F371F09
:10030000CF016CE97FEFA0D1260F371FCF0160E945
:1003100071E09AD1260F371FC8016CE070E094D1CC
:10032000AB01440F551F460F571F440F551F440F75
:10033000551F4E0D5F1D69E970E0469FC001479F44
:10034000900D569F900D1124895C914065E070E0FE
:100350007BD1260F371FC90167E070E075D1880F88
:10036000991FFE013196E80FF91F808191812E9629
:100370000FB6F894DEBF0FBECDBFCF91DF911F91B6
:100380000F91FF90EF9008958F929F92AF92BF923E
:10039000CF92DF92EF92FF920F931F93CF93DF9351
:1003A0006C017B01B42EA52E8901C901B1D1882E23
:1003B000E4014E01992EE401C601B4014AE050E087
:1003C000DAD28B2D9A2DE80EF91EF70180E090E02D
:1003D00040E3B7016F5F7F4F12C03AE0C316D1040C
:1003E00034F4D7014C932881DB012C9306C09E0185
:1003F000280F391FD9012C9120830196319680173F
:1004000091075CF3CE011ED2DF91CF911F910F9126
:10041000FF90EF90DF90CF90BF90AF909F908F9024
:100420000895FF920F931F93CF93DF93EC018C01FC
:100430000B5F1F4F8B8190E0B80140E050E022E05D
:1004400030E0A2DF8AE3F82EFF828C8190E0B801D1
:1004500043E050E022E030E097DFFA868E8590E0BE
:10046000B80146E050E022E030E08EDFDF91CF912E
:100470001F910F91FF900895FF920F931F93CF93B9
:10048000DF93EC018C01015F1F4F888190E0805366
:10049000984FB80140E050E024E030E075DF9DE285
:1004A000F92EFB8A898190E0B80145E050E022E016
:1004B00030E06ADFFE8A8A8190E0B80148E050E0CF
:1004C00022E030E061DF69814A81888190E070E05C
:1004D00050E072DE98A78FA3DF91CF911F910F910B
:1004E000FF900895CF93DF93EC019BDFCE01C4DF33
:1004F000DF91CF910895FC0186858F5F86878C33CD
:1005000021F4168684818F5F848384818C3321F467
:10051000148283818F5F83838381883121F41382E6
:1005200082818F5F82838181DF01A80FB11D2281CB
:100530005A969C915A97921720F491E092838F5F7C
:10054000818381818D3028F081E0818380818F5F7C
:1005500080830895CF92DF92EF92FF920F931F93C3
:10056000DF93CF93CDB7DEB7A9970FB6F894DEBF70
:100570000FBECDBF87B38FEF87BB91B381BBDE01C9
:100580001196EEE7F0E089E201900D928150E1F7DB
:100590008EDD36E0E32EF12CEC0EFD1E80E090E0C7
:1005A00061E070E0A70122E330E0DBDD80E090E075
:1005B00062E070E040E650E022E330E0D2DD80E02F
:1005C00090E063E070E04EE650E022E330E0C9DD09
:1005D0008FEB97E2A9E081509040A040E1F700C086
:1005E00000008E010F5F1F4F20E1C22ED12CCC0ED8
:1005F000DD1EC701FE2CE92EC8017DDFC80172DFB8
:1006000080E090E060E070E0A60120E030E0A9DD4D
:1006100080E090E061E070E04F2D5E2D20E030E062
:10062000A0DD48A559A580E190E060E070E020E001
:1006300030E097DD8FE39DE0A3E081509040A04043
:10064000E1F700C00000D8CF97FB092E07260AD09B
:1006500077FD04D027D006D000201AF4709561955C
:100660007F4F0895F6F7909581959F4F089597FBDA
:10067000092E05260ED057FD04D028D00AD0001C24
:1006800038F450954095309521953F4F4F4F5F4F2F
:100690000895F6F790958095709561957F4F8F4FEF
:1006A0009F4F0895AA1BBB1B51E107C0AA1FBB1F88
:1006B000A617B70710F0A61BB70B881F991F5A95EE
:1006C000A9F780959095BC01CD010895A1E21A2E5D
:1006D000AA1BBB1BFD010DC0AA1FBB1FEE1FFF1FE6
:1006E000A217B307E407F50720F0A21BB30BE40B36
:1006F000F50B661F771F881F991F1A9469F760957D
:100700007095809590959B01AC01BD01CF01089536
:10071000CF93DF938230910510F482E090E0E09176
:10072000E800F091E90040E050E020E030E026C031
:100730006081718168177907E0F06817790781F4A3
:10074000828193812115310531F0D90113969C9353
:100750008E9312972BC09093E9008093E80026C0F7
:100760004115510519F06417750718F4AB01E9013B
:10077000DF019F0172816381E72FF62F3097C1F669
:100780004115510501F1481B590B4430510580F4C6
:1007900012968D919C911397209719F09B838A83D1
:1007A00004C09093E9008093E800FD01329646C0B2
:1007B000FD01E40FF51F8193919342505040119633
:1007C0005C934E933BC02091E6003091E7002115E9
:1007D000310541F42091E1003091E2003093E700CF
:1007E0002093E6002091E3003091E40021153105CB
:1007F00041F42DB73EB74091DF005091E000241B3B
:10080000350BE091E600F091E700E217F307A0F462
:100810002E1B3F0B2817390778F0AC014E5F5F4F56
:100820002417350748F04E0F5F1F5093E7004093A1
:10083000E6008193919302C0E0E0F0E0CF01DF9108
:10084000CF910895CF93DF93009709F491C0FC01F5
:100850003297138212826091E8007091E90061156D
:10086000710581F420813181280F391F8091E600C4
:100870009091E7008217930799F5F093E700E093D2
:10088000E60076C0DB0180E090E002C0CD01D90136
:10089000AE17BF0748F412962D913C91139721157E
:1008A0003105A1F7CD0121C0B383A283EF014991A6
:1008B00059919E01240F351FA217B30779F42D918A
:1008C0003C911197240F351F2E5F3F4F31832083BA
:1008D00012962D913C91139733832283009729F42C
:1008E000F093E900E093E80043C0DC011396FC9329
:1008F000EE9312974D915D91A40FB51FEA17FB0778
:1009000069F420813181240F351F2E5F3F4FEC01A8
:1009100039832883228133813B832A83E0E0F0E01E
:1009200002C0FB01BC01DB0112968D919C911397D3
:100930000097B9F79B012E5F3F4F8D919C911197C6
:10094000820F931F4091E6005091E7004817590726
:1009500079F4309729F41092E9001092E80002C06F
:1009600013821282225030403093E7002093E60039
:10097000DF91CF910895FB019F01E8944230BCF0D4
:100980004532ACF44A3029F497FB1EF490958195DA
:100990009F4F642F772786DE805D8A330CF0895D58
:1009A0008193CB010097A9F716F45DE25193108271
:1009B000C90100C0DC01FC01672F71917723E1F7C9
:1009C000329704C07C916D9370836291AE17BF071C
:0809D000C8F30895F894FFCF6D
:1009D80048656C6C6F2041736877696E2100596FA8
:1009E8007527726520617765736F6D6521000E0C40
:1009F8001F173B32333A35393A3535003731342D04
:100A080031322D3331000000001F1C1F1E1F1E1F16
:100A18001F1E1F1E1F00004D4F4E00545545005706
:100A28004544005448550046524900534154005328
:100A3800554E00A700AB00AF00B300B700BB00BF26
:100A480000A700AB00AF00B300B700BB00BF002099
:060A580000EA00000000AE
:00000001FF
