:1000000012C02CC02BC02AC029C028C027C026C0BF
:1000100025C024C023C022C021C020C01FC01EC0D4
:100020001DC01CC01BC011241FBECFE5D4E0DEBF25
:10003000CDBF10E0A0E6B0E0ECE5F8E002C005902E
:100040000D92AA3CB107D9F710E0AAECB0E001C0CC
:100050001D92AE3CB107E1F7FCD1FEC3D1CF20E049
:1000600030E008C0E9EFF0E03197F1F700C00000A0
:100070002F5F3F4F28173907ACF3089582BBAB9A27
:10008000A998AA9881E090E0EADFAB9881E090E03F
:10009000E6DF089582BB85B38A6085BBAA9881E0BC
:1000A00090E0DDDFAB9881E090E0D9DF089584B384
:1000B0008E6084BB8CE3E2DF8CE0E0DF86E0DEDF95
:1000C00081E0DCDF80E8DADF0895DF92EF92FF92D3
:1000D0000F931F93CF93DF937C01D62E982F092F78
:1000E0001F2DC0E0D0E00AC0DD2019F08D2D90E07A
:1000F000B6DFF80181918F01CDDF2196F7010190E4
:100100000020E9F73197EE19FF09CE17DF0760F3FA
:10011000DF91CF911F910F91FF90EF90DF900895A5
:100120006130710589F06230710524F46115710543
:1001300041F013C06230710551F06330710569F40C
:1001400009C080589F4F0BC080549F4F08C08C56E9
:100150009F4F05C08C529F4F02C080E090E08EDF21
:1001600008950F931F93DF93CF9300D00F92CDB7D5
:10017000DEB78C012B8349835A83D2DF4981A42FB8
:100180005A81B52FFD0101900020E9F73197EA1B54
:10019000FB0B84E190E0801B910B2B81E817F907A2
:1001A00018F4CA01622F91DF0F900F900F90CF913A
:1001B000DF911F910F910895EF92FF920F931F937C
:1001C000DF93CF93CDB7DEB72E970FB6F894DEBF8F
:1001D0000FBECDBF7B019A01DE011196E6EBF0E088
:1001E0004EE001900D924150E1F70EE010E00E1943
:1001F0001F09FC01E054FD4EC80164EF7FEFA3D15D
:10020000E60FF71F2D523D474DE651E0E49FC00138
:10021000E59F900DF49F900D1124280F391FCF01F9
:1002200064E070E090D1260F371FCF016CE97FEFBB
:100230008AD1260F371FCF0160E971E084D1260FE4
:10024000371FC8016CE070E07ED1AB01440F551F31
:10025000460F571F440F551F440F551F4E0D5F1D6E
:1002600069E970E0469FC001479F900D569F900D31
:100270001124895C914065E070E065D1260F371F3D
:10028000C90167E070E05FD1880F991FFE013196C8
:10029000E80FF91F808191812E960FB6F894DEBF8A
:1002A0000FBECDBFCF91DF911F910F91FF90EF90C7
:1002B00008958F929F92AF92BF92CF92DF92EF926A
:1002C000FF920F931F93CF93DF936C017B01B42EAA
:1002D000A52E8901C9015ED1882EE4014E01992E17
:1002E000E401C601B4014AE050E087D28B2D9A2D7B
:1002F000E80EF91EF70180E090E040E3B7016F5F80
:100300007F4F12C03AE0C316D10434F4D7014C93A6
:100310002881DB012C9306C09E01280F391FD901CB
:100320002C91208301963196801791075CF3CE01C2
:10033000CBD1DF91CF911F910F91FF90EF90DF9084
:10034000CF90BF90AF909F908F900895FF920F93A2
:100350001F93CF93DF93EC018C010B5F1F4F8B81B9
:1003600090E0B80140E050E022E030E0A2DFFAE3A4
:10037000FF2EFF828C8190E0B80143E050E022E044
:1003800030E097DFFA868E8590E0B80146E050E0D5
:1003900022E030E08EDFDF91CF911F910F91FF902F
:1003A0000895FF920F931F93CF93DF93EC018C017D
:1003B000015F1F4F888190E08053984FB80140E063
:1003C00050E024E030E075DFADE2FA2EFB8A89814F
:1003D00090E0B80145E050E022E030E06ADFFE8ABC
:1003E0008A8190E0B80148E050E022E030E061DF2F
:1003F00069814A81888190E070E050E0DDDE9B8F6A
:100400008A8FDF91CF911F910F91FF900895CF9325
:10041000DF93EC019BDFCE01C4DFDF91CF91089524
:10042000FC0186858F5F86878C3321F41686848154
:100430008F5F848384818C3321F4148283818F5F66
:1004400083838381883121F4138282818F5F828349
:100450000895CF92DF92EF92FF920F931F93DF9355
:10046000CF93CDB7DEB76C970FB6F894DEBF0FBE53
:10047000CDBF87B38FEF87BB91B381BBDE011196F0
:10048000EEE7F0E08CE101900D928150E1F70FDE94
:1004900016E0E12EF12CEC0EFD1E80E090E061E014
:1004A00070E0A70122E330E05CDE80E090E062E0F3
:1004B00070E040E650E022E330E053DE80E090E080
:1004C00063E070E04EE650E022E330E04ADE8FEB7E
:1004D00097E2A9E081509040A040E1F700C0000001
:1004E0008E010F5F1F4FB0E1CB2ED12CCC0EDD1E45
:1004F000C701FE2CE92EC80193DFC80188DF80E028
:1005000090E060E070E0A60120E030E02ADE80E0CC
:1005100090E061E070E04F2D5E2D20E030E021DEC4
:100520004B8D5C8D80E190E060E070E020E030E099
:1005300018DE8FE39DE0A3E081509040A040E1F7FA
:1005400000C00000D8CF97FB092E07260AD077FD00
:1005500004D00CD006D000201AF4709561957F4F1E
:100560000895F6F7909581959F4F0895AA1BBB1BA0
:1005700051E107C0AA1FBB1FA617B70710F0A61BA3
:10058000B70B881F991F5A95A9F780959095BC01C4
:10059000CD010895CF93DF938230910510F482E06E
:1005A00090E0E091CC00F091CD0040E050E020E000
:1005B00030E026C06081718168177907E0F0681724
:1005C000790781F4828193812115310531F0D901B8
:1005D00013969C938E9312972BC09093CD0080938B
:1005E000CC0026C04115510519F06417750718F4A1
:1005F000AB01E901DF019F0172816381E72FF62FD3
:100600003097C1F64115510501F1481B590B443093
:10061000510580F412968D919C911397209719F0B3
:100620009B838A8304C09093CD008093CC00FD010E
:10063000329646C0FD01E40FF51F8193919342501D
:10064000504011965C934E933BC02091CA0030916C
:10065000CB002115310541F42091C6003091C7002F
:100660003093CB002093CA002091C8003091C9007C
:100670002115310541F42DB73EB74091C40050918A
:10068000C500241B350BE091CA00F091CB00E217A6
:10069000F307A0F42E1B3F0B2817390778F0AC01A5
:1006A0004E5F5F4F2417350748F04E0F5F1F509382
:1006B000CB004093CA008193919302C0E0E0F0E048
:1006C000CF01DF91CF910895CF93DF93009709F485
:1006D00091C0FC013297138212826091CC0070911C
:1006E000CD006115710581F420813181280F391FFA
:1006F0008091CA009091CB008217930799F5F093EF
:10070000CB00E093CA0076C0DB0180E090E002C03D
:10071000CD01D901AE17BF0748F412962D913C9137
:10072000139721153105A1F7CD0121C0B383A28311
:10073000EF01499159919E01240F351FA217B3076C
:1007400079F42D913C911197240F351F2E5F3F4F67
:100750003183208312962D913C911397338322830A
:10076000009729F4F093CD00E093CC0043C0DC0166
:100770001396FC93EE9312974D915D91A40FB51FC4
:10078000EA17FB0769F420813181240F351F2E5FA2
:100790003F4FEC0139832883228133813B832A83B5
:1007A000E0E0F0E002C0FB01BC01DB0112968D919C
:1007B0009C9113970097B9F79B012E5F3F4F8D9146
:1007C0009C911197820F931F4091CA005091CB00CA
:1007D0004817590779F4309729F41092CD001092F8
:1007E000CC0002C013821282225030403093CB00E2
:1007F0002093CA00DF91CF910895FB019F01E894F7
:100800004230BCF04532ACF44A3029F497FB1EF478
:10081000909581959F4F642F7727A8DE805D8A335E
:100820000CF0895D8193CB010097A9F716F45DE286
:1008300051931082C90100C0DC01FC01672F719146
:100840007723E1F7329704C07C916D9370836291B6
:0C085000AE17BF07C8F30895F894FFCF5F
:10085C0048656C6C6F2041736877696E2100596F25
:10086C007527726520617765736F6D6521000E06C3
:10087C0003113B31373A35393A3539003B31342D98
:10088C0030362D303300000000004D4F4E005455D3
:10089C0045005745440054485500465249005341C1
:1008AC00540053554E009A009E00A200A600AA00C8
:0A08BC00AE00B2002000CE000000E4
:00000001FF
