:1000000012C024C023C022C021C020C01FC01EC0F7
:100010001DC01CC01BC01AC019C018C017C016C014
:1000200015C014C013C011241FBECFE5D4E0DEBF3D
:10003000CDBF10E0A0E6B0E0E6E3F8E002C0059036
:100040000D92AE38B107D9F7B1D0F3C3D9CF20E0C4
:1000500030E008C0E9EFF0E03197F1F700C00000B0
:100060002F5F3F4F28173907ACF3089582BBAB9A37
:10007000A998AA9881E090E0EADFAB9881E090E04F
:10008000E6DF089582BB85B38A6085BBAA9881E0CC
:1000900090E0DDDFAB9881E090E0D9DF089584B394
:1000A0008E6084BB8CE3E2DF8CE0E0DF86E0DEDFA5
:1000B00081E0DCDF80E8DADF0895CF92DF92EF9213
:1000C000FF920F931F93CF93DF937B01EC01099075
:1000D0000020E9F72197C81BD90BC82ED92E00E0C4
:1000E00010E00BC0E114F10411F0C701B0DFF6011C
:1000F00081916F01C7DF0F5F1F4F0C171D0794F32E
:10010000DF91CF911F910F91FF90EF90DF90CF90F3
:1001100008956130710589F06230710524F461152C
:10012000710541F013C06230710551F06330710503
:1001300069F409C080589F4F0BC080549F4F08C07E
:100140008C569F4F05C08C529F4F02C080E090E0BC
:100150008DDF0895EF92FF920F931F93DF93CF935C
:1001600000D0CDB7DEB77C01890149835A83D1DF46
:100170004981A42F5A81B52FFD0101900020E9F794
:100180003197EA1BFB0B84E190E08E199F09E81779
:10019000F9071CF4CA01B80190DF0F900F90CF91BE
:1001A000DF911F910F91FF90EF900895DF92EF92F2
:1001B000FF920F931F93CF93DF9387B39FEF97BB6C
:1001C00084B38C6184BB81B391BB69DF40917900BA
:1001D00050917A0080E090E060E070E022E330E04F
:1001E000B9DF809170009091710062E370E065DF8B
:1001F00084E690E060E070E060DF40918B00509119
:100200008C0080E090E062E070E022E330E0A2DF6A
:100210008FEB97E2A9E081509040A040E1F700C049
:100220000000C0E0D0E0DD24D39400E610E086E6D4
:10023000E82E80E0F82E88B38D2588BB00D000D052
:1002400000D0EDB7FEB73196ADB7BEB712961C938E
:100250000E931197F382E282D583C4831BD08DB7AE
:100260009EB706960FB6F8949EBF0FBE8DBF80E076
:1002700090E063E070E0A80120E030E06BDF8FE306
:100280009DE0A3E081509040A040E1F700C0000055
:100290002196D1CFAEE0B0E0EFE4F1E0A1C20D894C
:1002A0001E8986E08C831A8309838FEF9FE79E83E4
:1002B0008D839E01275E3F4FCE0101966F89788D19
:1002C000A90108D0EF81F885E00FF11F10822E966A
:1002D000E4E0A2C2ACE0B0E0EFE6F1E073C26C0192
:1002E0001B018A01FC0117821682838181FFC4C130
:1002F0002E010894411C511CF6019381F10193FDDC
:10030000859193FF81911F01882309F4B1C1853242
:1003100039F493FD859193FF81911F01853221F47A
:1003200090E0B601C5D1E8CFEE24FF2420E02032D2
:10033000B0F48B3269F08C3228F4803251F0833281
:1003400071F40BC08D3239F0803349F421602CC038
:100350002260246029C0286027C0206125C027FDB5
:100360002CC0382F30533A3098F426FF08C08E2D19
:10037000880FE82EEE0CEE0CE80EE30E15C08F2D64
:10038000880FF82EFF0CFF0CF80EF30E20620CC045
:100390008E3221F426FD6CC1206406C08C3611F427
:1003A000206802C0883649F4F10193FD859193FFDE
:1003B00081911F01882309F0BACF982F955493306B
:1003C00018F09052933028F40C5F1F4FFFE3F9832D
:1003D0000DC0833631F0833771F0833509F05CC08E
:1003E00021C0F801808189830E5F1F4F420171E0B7
:1003F000A72EB12C15C062E0662E712C600E711E06
:10040000F8018080918026FF03C06E2D70E002C04D
:100410006FEF7FEFC4012C8740D15C0183012C85F5
:100420002F7716C052E0652E712C600E711EF801F8
:100430008080918026FF03C06E2D70E002C06FEFB8
:100440007FEFC4012C871ED15C012C8520688301BD
:1004500023FD1EC007C080E290E0B6012C8728D1A2
:10046000FA942C858F2D90E0A816B906A0F310C041
:10047000F40127FD859127FF81914F0190E0B6019E
:100480002C8716D12C85F110FA940894A108B10894
:10049000A114B10469F7E9C0843611F0893641F539
:1004A00027FF08C0F80160817181828193810C5F10
:1004B0001F4F09C0F80160817181882777FD809501
:1004C000982F0E5F1F4F4FE6B42EB22297FF09C040
:1004D00090958095709561957F4F8F4F9F4FF0E875
:1004E000BF2AA2012AE030E00FD1782E741844C050
:1004F000853731F43FEEB32EB2222AE030E025C03A
:1005000099EFB92EB2228F36C1F0803720F48835AA
:1005100009F0AEC00DC0803721F0883709F0A8C0BF
:1005200002C020E1B22AB4FE0BC084E0B82A08C0A1
:10053000B4FE09C0E6E0BE2A06C028E030E005C0EF
:1005400020E130E002C020E132E0B7FE08C0F8014F
:1005500060817181828193810C5F1F4F07C0F80118
:100560006081718180E090E00E5F1F4FA201CCD0CE
:10057000782E7418FFE7BF22B6FE0BC02EEFB22212
:100580007E1438F4B4FE07C0B2FC05C08FEEB8226A
:1005900002C0A72C01C0AE2C8B2D90E0B4FE0DC084
:1005A000FE01E70DF11D2081203319F4E9EEBE2292
:1005B00009C0A394B2FE06C004C08678907000976C
:1005C00009F0A3948B2C9924B3FC13C0B0FE0EC089
:1005D000AF1428F4E72CEF0CEA18AF2C07C0E72C77
:1005E00005C080E290E0B60163D0A394AF14C8F3D5
:1005F00004C0AF1410F4FA1801C0FF2484FE0EC02A
:1006000080E390E0B60154D082FE1DC081FE03C09D
:1006100088E590E010C088E790E00DC0C4018678BE
:100620009070009781F081FC02C080E201C08BE2F3
:10063000B7FC8DE290E0B6013BD005C080E390E0CE
:10064000B60136D0EA947E14C8F37A94F201E70D2D
:10065000F11D808190E0B6012BD07720B1F705C065
:1006600080E290E0B60124D0FA94FF20C9F744CE8E
:10067000F6012681378102C02FEF3FEFC9012C968A
:10068000E2E1BCC0FC010590615070400110D8F758
:10069000809590958E0F9F1F0895FC0161507040CA
:1006A00001900110D8F7809590958E0F9F1F0895A7
:1006B0000F931F93CF93DF938C01EB018B8181FF0D
:1006C0001BC082FF0DC02E813F818C819D81281728
:1006D000390764F4E881F9810193F983E88306C05E
:1006E000E885F985802F0995009731F48E819F81E7
:1006F00001969F838E8302C00FEF1FEFC801DF9129
:10070000CF911F910F910895FA01AA27283051F136
:10071000203181F1E8946F936E7F6E5F7F4F8F4F32
:100720009F4FAF4FB1E03ED0B4E03CD0670F781F91
:10073000891F9A1FA11D680F791F8A1F911DA11D76
:100740006A0F711D811D911DA11D20D009F46894AF
:100750003F912AE0269F11243019305D3193DEF657
:10076000CF010895462F4770405D4193B3E00FD00D
:10077000C9F7F6CF462F4F70405D4A3318F0495DF8
:1007800031FD4052419302D0A9F7EACFB4E0A695DB
:100790009795879577956795BA95C9F700976105FD
:1007A000710508959B01AC010A2E06945795479553
:1007B00037952795BA95C9F7620F731F841F951F48
:1007C000A01D08952F923F924F925F926F927F9259
:1007D0008F929F92AF92BF92CF92DF92EF92FF9251
:1007E0000F931F93CF93DF93CDB7DEB7CA1BDB0BFD
:1007F0000FB6F894DEBF0FBECDBF09942A883988A2
:1008000048885F846E847D848C849B84AA84B984A8
:10081000C884DF80EE80FD800C811B81AA81B981B4
:10082000CE0FD11D0FB6F894DEBF0FBECDBFED01C8
:060830000895F894FFCFCB
:1008360030303000210025640041736877696E000E
:10084600690048656C6C6F20007200596F752772DD
:0E0856006520617765736F6D6521007B000082
:00000001FF
