:1000000012C024C023C022C021C020C01FC01EC0F7
:100010001DC01CC01BC01AC019C018C017C016C014
:1000200015C014C013C011241FBECFE5D4E0DEBF3D
:10003000CDBF10E0A0E6B0E0ECEEF1E002C005902C
:100040000D92A638B107D9F79ED0CEC0D9CF82BBCA
:10005000AB9AA998AA9889EF90E00197F1F700C0B0
:100060000000AB9889EF90E00197F1F700C0000025
:10007000089582BB85B38A6085BBAA9889EF90E01A
:100080000197F1F700C00000AB9889EF90E001976D
:10009000F1F700C00000089584B38E6084BB8CE348
:1000A000D6DF8CE0D4DF86E0D2DF81E0D0DF80E8ED
:1000B000CEDF0895EF92FF920F931F93CF93DF93BC
:1000C000EC0109900020E9F72197C81BD90BE82E15
:1000D000F92E00E010E006C0F70181917F01C9DF31
:1000E0000F5F1F4F0C171D07BCF3DF91CF911F91BE
:1000F0000F91FF90EF9008956130710589F06230A3
:10010000710524F46115710541F013C06230710569
:1001100051F06330710569F409C080589F4F0BC0DE
:1001200080549F4F08C08C569F4F05C08C529F4FE4
:1001300002C080E090E08BDF08950F931F93DF9360
:10014000CF9300D0CDB7DEB78C0149835A83D4DF7B
:100150004981A42F5A81B52FFD0101900020E9F7B4
:100160003197EA1BFB0B84E190E0801B910BE817B1
:10017000F90714F4CA019EDF0F900F90CF91DF9121
:100180001F910F91089587B39FEF97BB84B38C6144
:1001900084BB81B391BB80DF4091720050917300AA
:1001A00080E090E060E070E0C8DF809169009091AD
:1001B0006A0080DF80E690E07DDF4091840050910E
:1001C000850080E090E062E070E0B7DF91E088B306
:1001D000892788BB2FE33DE043E021503040404079
:0C01E000E1F700C00000F3CFF894FFCF5F
:1001EC00210041736877696E00620048656C6C6F22
:1001FC0020006B00596F7527726520617765736FEE
:06020C006D652100740085
:00000001FF
