:1000000012C02CC02BC02AC029C028C027C026C0BF
:1000100025C024C023C022C021C020C01FC01EC0D4
:100020001DC01CC01BC011241FBECFE5D4E0DEBF25
:10003000CDBF10E0A0E6B0E0E6E8F8E002C0059031
:100040000D92AE3DB107D9F710E0AEEDB0E001C0C2
:100050001D92A23EB107E1F7E1D113C4D1CF20E058
:1000600030E008C0E9EFF0E03197F1F700C00000A0
:100070002F5F3F4F28173907ACF3089582BBAB9A27
:10008000A998AA9881E090E0EADFAB9881E090E03F
:10009000E6DF089582BB85B38A6085BBAA9881E0BC
:1000A00090E0DDDFAB9881E090E0D9DF089584B384
:1000B0008E6084BB8CE3E2DF8CE0E0DF86E0DEDF95
:1000C00081E0DCDF80E8DADF0895DF92EF92FF92D3
:1000D0000F931F93CF93DF937C01D62E982F092F78
:1000E0001F2DC0E0D0E00AC0DD2019F08D2D90E07A
:1000F000B6DFF80181918F01CDDF2196F7010190E4
:100100000020E9F73197EE19FF09CE17DF0760F3FA
:10011000DF91CF911F910F91FF90EF90DF900895A5
:100120006130710589F06230710524F46115710543
:1001300041F013C06230710551F06330710569F40C
:1001400009C080589F4F0BC080549F4F08C08C56E9
:100150009F4F05C08C529F4F02C080E090E08EDF21
:1001600008950F931F93DF93CF9300D00F92CDB7D5
:10017000DEB78C012B8349835A83D2DF4981A42FB8
:100180005A81B52FFD0101900020E9F73197EA1B54
:10019000FB0B84E190E0801B910B2B818E179F0756
:1001A00018F0CA01622F91DF0F900F900F90CF913E
:1001B000DF911F910F910895CF93DF93EC019A0186
:1001C000633071051CF4FC01319702C0FC012297D9
:1001D0002C5F3F4F47E150E0649FC001659F900D49
:1001E000749F900D112469E070E0C2D1260F371F73
:1001F0002C0F3D1FCF0164E070E0BAD1260F371FEE
:10020000CF016CE97FEFB4D1260F371FCF0160E932
:1002100071E0AED1260F371FC90167E070E0A8D1A9
:10022000FC01EE0FFF1FE753FF4F80819181DF91AB
:10023000CF9108958F929F92AF92BF92CF92DF920B
:10024000EF92FF920F931F93CF93DF936C017B018B
:10025000B42EA52E8901C901B2D1882EE4014E0128
:10026000992EE401C601B4014AE050E0DBD28B2DA7
:100270009A2DE80EF91EF70180E090E040E3B70107
:100280006F5F7F4F12C03AE0C316D10434F4D70138
:100290004C932881DB012C9306C09E01280F391F47
:1002A000D9012C91208301963196801791075CF338
:1002B000CE011FD2DF91CF911F910F91FF90EF9050
:1002C000DF90CF90BF90AF909F908F900895FF9256
:1002D0000F931F93CF93DF93EC018C010B5F1F4FA4
:1002E0008B8190E0B80140E050E022E030E0A2DFF6
:1002F0009AE3F92EFF828C8190E0B80143E050E050
:1003000022E030E097DFFA868E8590E0B80146E083
:1003100050E022E030E08EDFDF91CF911F910F910E
:10032000FF900895FF920F931F93CF93DF93EC01FB
:100330008C01015F1F4F888190E08053984FB80176
:1003400040E050E024E030E075DF2DE2F22EFB8A41
:10035000898190E0B80145E050E022E030E06ADFBA
:10036000FE8A8A8190E0B80148E050E022E030E067
:1003700061DF69814A81888190E070E050E01CDF94
:1003800098A78FA3DF91CF911F910F91FF900895B0
:10039000CF93DF93EC019BDFCE01C4DFDF91CF91E0
:1003A0000895FC0186858F5F86878C3321F416863D
:1003B00084818F5F848384818C3321F414828381D0
:1003C0008F5F83838381883121F4138282818F5FE1
:1003D00082838181DF01A80FB11D22815A969C91F1
:1003E0005A97921720F491E092838F5F81838181E5
:1003F0008D3028F081E0818380818F5F8083089534
:10040000379A87B1807387B9369A000084B195B165
:10041000392F20E0280F311DC90108958F929F9236
:10042000AF92BF92CF92DF92EF92FF920F931F9302
:10043000DF93CF93CDB7DEB7A9970FB6F894DEBFA1
:100440000FBECDBF8FED8093630087B38FEF87BB67
:1004500091B381BBDE011196E4E8F0E089E20190FE
:100460000D928150E1F723DE66E0E62EF12CEC0ED2
:10047000FD1E80E090E061E070E0A70122E330E043
:1004800070DE80E090E062E070E046E650E022E35B
:1004900030E067DE80E090E063E070E044E750E049
:1004A00022E330E05EDE82E190E061E070E043E66E
:1004B00050E020E030E055DE8FEB97E2A9E081507C
:1004C0009040A040E1F700C000008E010F5F1F4F79
:1004D00050E1852E912C8C0E9D1EBE2CAF2C44EF2E
:1004E000E42E41E0F42EC12C34E0D32EC80159DFB4
:1004F000C8014EDF80E090E060E070E0A40120E001
:1005000030E02FDE80E090E061E070E04B2D5A2D6E
:1005100020E030E026DE48A559A581E190E060E0CA
:1005200070E020E030E01DDE6BDFDC01AE9DC0013D
:10053000AF9D900DBE9D900D1124B60119D0CB0139
:1005400060E670E04AE050E06DD180E190E061E06B
:1005500070E040E650E020E030E003DE8FE39DE015
:10056000A3E081509040A040E1F700C00000BECF62
:1005700097FB092E07260AD077FD04D00CD006D0B1
:1005800000201AF4709561957F4F0895F6F79095C5
:1005900081959F4F0895AA1BBB1B51E107C0AA1F5D
:1005A000BB1FA617B70710F0A61BB70B881F991F14
:1005B0005A95A9F780959095BC01CD010895CF93E8
:1005C000DF938230910510F482E090E0E091E0004A
:1005D000F091E10040E050E020E030E026C0608192
:1005E000718168177907E0F06817790781F48281D3
:1005F00093812115310531F0D90113969C938E9387
:1006000012972BC09093E1008093E00026C0411523
:10061000510519F06417750718F4AB01E901DF0102
:100620009F0172816381E72FF62F3097C1F6411544
:10063000510501F1481B590B4430510580F41296C5
:100640008D919C911397209719F09B838A8304C006
:100650009093E1008093E000FD01329646C0FD01D9
:10066000E40FF51F819391934250504011965C9393
:100670004E933BC02091DE003091DF002115310503
:1006800041F42091D9003091DA003093DF002093BB
:10069000DE002091DB003091DC002115310541F4B2
:1006A0002DB73EB74091D7005091D800241B350B91
:1006B000E091DE00F091DF00E217F307A0F42E1BBB
:1006C0003F0B2817390778F0AC014E5F5F4F2417B6
:1006D000350748F04E0F5F1F5093DF004093DE0058
:1006E0008193919302C0E0E0F0E0CF01DF91CF91E0
:1006F0000895CF93DF93009709F491C0FC013297DE
:10070000138212826091E0007091E1006115710521
:1007100081F420813181280F391F8091DE00909172
:10072000DF008217930799F5F093DF00E093DE0076
:1007300076C0DB0180E090E002C0CD01D901AE17A8
:10074000BF0748F412962D913C911397211531055E
:10075000A1F7CD0121C0B383A283EF014991599143
:100760009E01240F351FA217B30779F42D913C91F8
:100770001197240F351F2E5F3F4F31832083129630
:100780002D913C91139733832283009729F4F093A2
:10079000E100E093E00043C0DC011396FC93EE938C
:1007A00012974D915D91A40FB51FEA17FB0769F4ED
:1007B00020813181240F351F2E5F3F4FEC0139839B
:1007C0002883228133813B832A83E0E0F0E002C06A
:1007D000FB01BC01DB0112968D919C911397009750
:1007E000B9F79B012E5F3F4F8D919C911197820F1E
:1007F000931F4091DE005091DF004817590779F4AC
:10080000309729F41092E1001092E00002C01382A8
:100810001282225030403093DF002093DE00DF91BF
:10082000CF910895FB019F01E8944230BCF045321E
:10083000ACF44A3029F497FB1EF4909581959F4FB4
:10084000642F7727A8DE805D8A330CF0895D819361
:10085000CB010097A9F716F45DE251931082C9010C
:1008600000C0DC01FC01672F71917723E1F732971B
:1008700004C07C916D9370836291AE17BF07C8F37B
:060880000895F894FFCF7B
:1008860033390064430048656C6C6F204175726FA4
:1008960072612100596F7527726520617765736FE4
:1008A6006D6521000E0C1F173B32333A35393A3548
:1008B60035003731342D31322D3331000000001F21
:1008C6001C1F1E1F1E1F1F1E1F1E1F000053554EDE
:1008D600004D4F4E00545545005745440054485569
:1008E600004652490053415400AD00B100B500B96D
:0E08F60000BD00C100C5002000E200000000AF
:00000001FF
